export const baseApiUrl = "https://simba-dev-api.platform.simbachain.com/";
export const orgName = "brendan_birch_simbachain_com";
export const appName = "BrendanTestApp";
export const contractName = "test_contract_vds5";
export const mumbaiWallet = "0x59D859Da04439AE87Afd689A4CA89C354CB93532";
export const userEmail = "brendan.birch@simbachain.com";
export const bundleHash = "57f6ef0fcc97614f899af3f165cabbaec9632b95fc89906837f474a6a2c8a184";
export const solContractName = "TestContractChanged";
export const Quorum = "Quorum";
export const mumbai = "mumbai";
export const ethereum = "ethereum";
export const transactionHash = "0x2b05a28c90283011054f9299e92b80f045ff3d454f87008c8b67e767393b7d14";
export const solidity = "solidity";
export const deploymentID = "37cb8577-65bd-4669-8380-b0a3ba93e718";
export const designID = "5114c41b-c03a-4674-b348-a0cd73d2c0d6";
export const artifactID = "4b80be26-c6a3-4aa6-82d1-f94925e5da2b";
export const transactionID = "7eb73229-b1f8-4aa4-af4b-37f79c1df6bb";
export const eventContract = "eventcontract_vds5";
export const eventName = "Log";
export const nonPendingTransactionID = "8a2c5fbf-340f-4038-a3c0-bb8d088ecf1e";
export const sourceCode = "// SPDX-License-Identifier: UNLICENSED\npragma solidity ^0.8.3;\n\ncontract EventContract {\n    \n    event Log(address indexed sender, string message);\n    mapping(string => uint) public userBalances;\n\n    function addMapping(string memory userId) public {\n        userBalances[userId]++;\n        emit Log(msg.sender, \"Data reported\");\n        return;\n    }\n\n    function getBalance(string memory userId) public view returns (uint) {\n        return userBalances[userId];\n    }\n\n}";
export const transactionObject = {
    "id": "8a2c5fbf-340f-4038-a3c0-bb8d088ecf1e",
    "request_id": "418d2bc0-0b0c-455f-8ae2-1ba6ffdd63da",
    "created_on": "2022-10-03T16:47:20.099589Z",
    "finalized_on": null,
    "method": "structTest5",
    "inputs": {
      "person": {
        "age": 1000,
        "addr": {
          "town": "nyc",
          "number": 1234,
          "street": "rogers"
        },
        "name": "Lenny's Ghost"
      },
      "_bundleHash": "223873f49bb7623bfc7da8806f009bdead8e4aaafe5b6e56c0fb2b46471ca9e7"
    },
    "receipt": {},
    "error": null,
    "error_details": {},
    "state": "SUBMITTED",
    "raw_transaction": {
      "to": "0x3daac1c8Bb80406D0eb2e7608C5d2fBcA92eD4a6",
      "gas": "0x6c54",
      "data": "0x47fb8c0a000000000000000000000000000000000000000000000000000000000000004000000000000000000000000000000000000000000000000000000000000001c0000000000000000000000000000000000000000000000000000000000000006000000000000000000000000000000000000000000000000000000000000003e800000000000000000000000000000000000000000000000000000000000000a0000000000000000000000000000000000000000000000000000000000000000d4c656e6e7927732047686f737400000000000000000000000000000000000000000000000000000000000000000000000000000000000000000000000000006000000000000000000000000000000000000000000000000000000000000004d200000000000000000000000000000000000000000000000000000000000000a00000000000000000000000000000000000000000000000000000000000000006726f67657273000000000000000000000000000000000000000000000000000000000000000000000000000000000000000000000000000000000000000000036e79630000000000000000000000000000000000000000000000000000000000000000000000000000000000000000000000000000000000000000000000004032323338373366343962623736323362666337646138383036663030396264656164386534616161666535623665353663306662326234363437316361396537",
      "from": "0xCa47475036474eAc0dF6697e6A6C74386f218236",
      "nonce": "0x1a3",
      "value": "0x0",
      "chainId": "0x151",
      "gasPrice": "0x0"
    },
    "signed_transaction": {
      "r": 4.2809928544253906e+76,
      "s": 5.268161053606005e+76,
      "v": 710,
      "hash": "0x2a5b7db8fe8b81905ac602a1f09aedc943efd48cb5fa06e7b35537f636cf0976",
      "rawTransaction": "0xf902898201a380826c54943daac1c8bb80406d0eb2e7608c5d2fbca92ed4a680b9022447fb8c0a000000000000000000000000000000000000000000000000000000000000004000000000000000000000000000000000000000000000000000000000000001c0000000000000000000000000000000000000000000000000000000000000006000000000000000000000000000000000000000000000000000000000000003e800000000000000000000000000000000000000000000000000000000000000a0000000000000000000000000000000000000000000000000000000000000000d4c656e6e7927732047686f737400000000000000000000000000000000000000000000000000000000000000000000000000000000000000000000000000006000000000000000000000000000000000000000000000000000000000000004d200000000000000000000000000000000000000000000000000000000000000a00000000000000000000000000000000000000000000000000000000000000006726f67657273000000000000000000000000000000000000000000000000000000000000000000000000000000000000000000000000000000000000000000036e796300000000000000000000000000000000000000000000000000000000000000000000000000000000000000000000000000000000000000000000000040323233383733663439626237363233626663376461383830366630303962646561643865346161616665356236653536633066623262343634373163613965378202c6a05ea58f96ab195f30f409c52bba44df15a9e9ba7acdd00ba18f83cfb060309d0ba07478bc2248e434d89e887f7f128085c89018828e002c19caf23d6a138bdbf344"
    },
    "transaction_hash": "0x2a5b7db8fe8b81905ac602a1f09aedc943efd48cb5fa06e7b35537f636cf0976",
    "bundle": "def70871-57b3-4711-905d-6935c939529e",
    "block": null,
    "nonce": 419,
    "from_address": "0xCa47475036474eAc0dF6697e6A6C74386f218236",
    "to_address": null,
    "created_by": 9,
    "contract": {
      "id": "f8896066-73c4-40b6-837e-7bcb8307b231",
      "api_name": "test_contract_vds5"
    },
    "app": "fb5fd523-9982-4785-a0ea-89d277f4014b",
    "blockchain": "3b288902-8438-492b-857a-58060d9c254a",
    "origin": "SCAAS",
    "transaction_type": "MC",
    "confirmations": 0,
    "value": "0"
  };